{"abi":[{"type":"constructor","inputs":[{"name":"_eas","type":"address","internalType":"contract IEAS"}],"stateMutability":"nonpayable"},{"type":"function","name":"checkObligation","inputs":[{"name":"obligation","type":"tuple","internalType":"struct Attestation","components":[{"name":"uid","type":"bytes32","internalType":"bytes32"},{"name":"schema","type":"bytes32","internalType":"bytes32"},{"name":"time","type":"uint64","internalType":"uint64"},{"name":"expirationTime","type":"uint64","internalType":"uint64"},{"name":"revocationTime","type":"uint64","internalType":"uint64"},{"name":"refUID","type":"bytes32","internalType":"bytes32"},{"name":"recipient","type":"address","internalType":"address"},{"name":"attester","type":"address","internalType":"address"},{"name":"revocable","type":"bool","internalType":"bool"},{"name":"data","type":"bytes","internalType":"bytes"}]},{"name":"demand","type":"bytes","internalType":"bytes"},{"name":"counteroffer","type":"bytes32","internalType":"bytes32"}],"outputs":[{"name":"","type":"bool","internalType":"bool"}],"stateMutability":"view"},{"type":"function","name":"confirm","inputs":[{"name":"_obligation","type":"bytes32","internalType":"bytes32"}],"outputs":[],"stateMutability":"nonpayable"},{"type":"function","name":"confirmations","inputs":[{"name":"","type":"bytes32","internalType":"bytes32"}],"outputs":[{"name":"","type":"bool","internalType":"bool"}],"stateMutability":"view"},{"type":"function","name":"counterofferConfirmed","inputs":[{"name":"","type":"bytes32","internalType":"bytes32"}],"outputs":[{"name":"","type":"bool","internalType":"bool"}],"stateMutability":"view"},{"type":"function","name":"decodeDemandData","inputs":[{"name":"data","type":"bytes","internalType":"bytes"}],"outputs":[{"name":"","type":"tuple","internalType":"struct UnrevocableConfirmationArbiterComposing.DemandData","components":[{"name":"baseArbiter","type":"address","internalType":"address"},{"name":"baseDemand","type":"bytes","internalType":"bytes"}]}],"stateMutability":"pure"},{"type":"function","name":"eas","inputs":[],"outputs":[{"name":"","type":"address","internalType":"contract IEAS"}],"stateMutability":"view"},{"type":"function","name":"requestConfirmation","inputs":[{"name":"_obligation","type":"bytes32","internalType":"bytes32"}],"outputs":[],"stateMutability":"nonpayable"},{"type":"event","name":"ConfirmationMade","inputs":[{"name":"obligation","type":"bytes32","indexed":true,"internalType":"bytes32"},{"name":"counteroffer","type":"bytes32","indexed":true,"internalType":"bytes32"}],"anonymous":false},{"type":"event","name":"ConfirmationRequested","inputs":[{"name":"obligation","type":"bytes32","indexed":true,"internalType":"bytes32"},{"name":"confirmer","type":"address","indexed":true,"internalType":"address"},{"name":"counteroffer","type":"bytes32","indexed":true,"internalType":"bytes32"}],"anonymous":false},{"type":"error","name":"CounterOfferAlreadyConfirmed","inputs":[]},{"type":"error","name":"UnauthorizedConfirmation","inputs":[]},{"type":"error","name":"UnauthorizedConfirmationRequest","inputs":[]}],"bytecode":{"object":"0x60a034607357601f610ae438819003918201601f19168301916001600160401b03831184841017607757808492602094604052833981010312607357516001600160a01b0381168103607357608052604051610a58908161008c823960805181818160f50152818161045f01526104b60152f35b5f80fd5b634e487b7160e01b5f52604160045260245ffdfe6080806040526004361015610012575f80fd5b5f3560e01c908163797af6271461048e575080638150864d1461044a578063838a68d914610347578063e6c9714d14610222578063e9af8361146100ca578063ec95bfe71461009c5763ef40132214610069575f80fd5b34610098576020366003190112610098576004355f526001602052602060ff60405f2054166040519015158152f35b5f80fd5b34610098576020366003190112610098576004355f525f602052602060ff60405f2054166040519015158152f35b34610098576020366003190112610098576040516328c44a9960e21b815260048035908201819052907f00000000000000000000000000000000000000000000000000000000000000006001600160a01b0316905f81602481855afa9081156101d7575f91610208575b5060e08101516001600160a01b0316331415806101f1575b6101e25760a05f9101516024604051809481936328c44a9960e21b835260048301525afa9081156101d7575f916101b5575b5060018060a01b0360c0820151169051917f93ece828de650a0159786850192cbcd721ab720e1ee81b00365a5c8d63886b315f80a4005b6101d191503d805f833e6101c98183610667565b81019061078c565b8261017e565b6040513d5f823e3d90fd5b63020a627d60e11b5f5260045ffd5b5060c08101516001600160a01b031633141561014c565b61021c91503d805f833e6101c98183610667565b83610134565b34610098576060366003190112610098576004356001600160401b03811161009857610140600319823603011261009857604051906102608261064b565b806004013582526024810135602083015261027d60448201610688565b604083015261028e60648201610688565b606083015261029f60848201610688565b608083015260a481013560a08301526102ba60c4820161069c565b60c08301526102cb60e4820161069c565b60e0830152610104810135801515810361009857610100830152610124810135906001600160401b03821161009857600461030992369201016106cb565b6101208201526024356001600160401b0381116100985760209161033461033d9236906004016106cb565b60443591610867565b6040519015158152f35b34610098576020366003190112610098576004356001600160401b03811161009857366023820112156100985780600401356001600160401b038111610098578101602481019136831161009857606060206040516103a58161061c565b5f81520152602081830312610098576024810135906001600160401b0382116100985701906040908290031261009857604051916103e28361061c565b6103ee6024830161069c565b83526044820135916001600160401b0383116100985761041192016024016106cb565b90602081019182526104466040519283926020845260018060a01b0390511660208401525160408084015260608301906105f8565b0390f35b34610098575f366003190112610098576040517f00000000000000000000000000000000000000000000000000000000000000006001600160a01b03168152602090f35b34610098576020366003190112610098576328c44a9960e21b815260048035908201819052907f00000000000000000000000000000000000000000000000000000000000000006001600160a01b0316905f81602481855afa9081156101d7575f916105de575b505f60a08201516024604051809581936328c44a9960e21b835260048301525afa9182156101d7575f926105c2575b5060c08201516001600160a01b031633036105b35781515f52600160205260ff60405f2054166105a457515f525f60205260405f20600160ff1982541617905580515f52600160205260405f20600160ff1982541617905551907fd22fd165f2b163f7b94d6e2b15443105c17bfae3fa2242150644ab76a95d532e5f80a3005b63c231efad60e01b5f5260045ffd5b6331eb5cd360e11b5f5260045ffd5b6105d79192503d805f833e6101c98183610667565b9083610524565b6105f291503d805f833e6101c98183610667565b836104f5565b805180835260209291819084018484015e5f828201840152601f01601f1916010190565b604081019081106001600160401b0382111761063757604052565b634e487b7160e01b5f52604160045260245ffd5b61014081019081106001600160401b0382111761063757604052565b90601f801991011681019081106001600160401b0382111761063757604052565b35906001600160401b038216820361009857565b35906001600160a01b038216820361009857565b6001600160401b03811161063757601f01601f191660200190565b81601f82011215610098578035906106e2826106b0565b926106f06040519485610667565b8284526020838301011161009857815f926020809301838601378301015290565b51906001600160401b038216820361009857565b51906001600160a01b038216820361009857565b5190811515820361009857565b81601f820112156100985780519061075d826106b0565b9261076b6040519485610667565b8284526020838301011161009857815f9260208093018386015e8301015290565b602081830312610098578051906001600160401b03821161009857016101408183031261009857604051916107c08361064b565b81518352602082015160208401526107da60408301610711565b60408401526107eb60608301610711565b60608401526107fc60808301610711565b608084015260a082015160a084015261081760c08301610725565b60c084015261082860e08301610725565b60e084015261083a6101008301610739565b6101008401526101208201516001600160401b0381116100985761085e9201610746565b61012082015290565b8151820191602081840312610098576020810151906001600160401b03821161009857019160408382031261009857604051926108a38461061c565b6108af60208201610725565b84526040810151916001600160401b038311610098576108d6926020809201920101610746565b6020830190815281515f525f60205260ff60405f20541615610a1a57915191516040805163e6c9714d60e01b8152606060048201819052845160648301526020808601516084840152928501516001600160401b0390811660a484015290850151811660c483015260808501511660e482015260a084015161010482015260c08401516001600160a01b0390811661012483015260e0850151811661014483015261010085015115156101648301526101209094015161014061018483015290959194869416928492839290916109c8916109b6906101a48601906105f8565b848103600319016024860152906105f8565b90604483015203915afa9081156101d7575f916109e3575090565b90506020813d602011610a12575b816109fe60209383610667565b8101031261009857610a0f90610739565b90565b3d91506109f1565b505050505f9056fea264697066735822122026f17e3a641488d5e57acdcdf4a3ea4ae260df73ab629445b210ac0055f82a2364736f6c634300081b0033","linkReferences":{}},"methodIdentifiers":{"checkObligation((bytes32,bytes32,uint64,uint64,uint64,bytes32,address,address,bool,bytes),bytes,bytes32)":"e6c9714d","confirm(bytes32)":"797af627","confirmations(bytes32)":"ec95bfe7","counterofferConfirmed(bytes32)":"ef401322","decodeDemandData(bytes)":"838a68d9","eas()":"8150864d","requestConfirmation(bytes32)":"e9af8361"},"id":7}